{
  "contractName": "StarNotary",
  "abi": [
    {
      "inputs": [],
      "stateMutability": "nonpayable",
      "type": "constructor"
    },
    {
      "anonymous": false,
      "inputs": [
        {
          "indexed": true,
          "internalType": "address",
          "name": "owner",
          "type": "address"
        },
        {
          "indexed": true,
          "internalType": "address",
          "name": "approved",
          "type": "address"
        },
        {
          "indexed": true,
          "internalType": "uint256",
          "name": "tokenId",
          "type": "uint256"
        }
      ],
      "name": "Approval",
      "type": "event"
    },
    {
      "anonymous": false,
      "inputs": [
        {
          "indexed": true,
          "internalType": "address",
          "name": "owner",
          "type": "address"
        },
        {
          "indexed": true,
          "internalType": "address",
          "name": "operator",
          "type": "address"
        },
        {
          "indexed": false,
          "internalType": "bool",
          "name": "approved",
          "type": "bool"
        }
      ],
      "name": "ApprovalForAll",
      "type": "event"
    },
    {
      "anonymous": false,
      "inputs": [
        {
          "indexed": true,
          "internalType": "address",
          "name": "from",
          "type": "address"
        },
        {
          "indexed": true,
          "internalType": "address",
          "name": "to",
          "type": "address"
        },
        {
          "indexed": true,
          "internalType": "uint256",
          "name": "tokenId",
          "type": "uint256"
        }
      ],
      "name": "Transfer",
      "type": "event"
    },
    {
      "inputs": [
        {
          "internalType": "address",
          "name": "to",
          "type": "address"
        },
        {
          "internalType": "uint256",
          "name": "tokenId",
          "type": "uint256"
        }
      ],
      "name": "approve",
      "outputs": [],
      "stateMutability": "nonpayable",
      "type": "function"
    },
    {
      "inputs": [
        {
          "internalType": "address",
          "name": "owner",
          "type": "address"
        }
      ],
      "name": "balanceOf",
      "outputs": [
        {
          "internalType": "uint256",
          "name": "",
          "type": "uint256"
        }
      ],
      "stateMutability": "view",
      "type": "function",
      "constant": true
    },
    {
      "inputs": [],
      "name": "baseURI",
      "outputs": [
        {
          "internalType": "string",
          "name": "",
          "type": "string"
        }
      ],
      "stateMutability": "view",
      "type": "function",
      "constant": true
    },
    {
      "inputs": [
        {
          "internalType": "uint256",
          "name": "tokenId",
          "type": "uint256"
        }
      ],
      "name": "getApproved",
      "outputs": [
        {
          "internalType": "address",
          "name": "",
          "type": "address"
        }
      ],
      "stateMutability": "view",
      "type": "function",
      "constant": true
    },
    {
      "inputs": [
        {
          "internalType": "address",
          "name": "owner",
          "type": "address"
        },
        {
          "internalType": "address",
          "name": "operator",
          "type": "address"
        }
      ],
      "name": "isApprovedForAll",
      "outputs": [
        {
          "internalType": "bool",
          "name": "",
          "type": "bool"
        }
      ],
      "stateMutability": "view",
      "type": "function",
      "constant": true
    },
    {
      "inputs": [],
      "name": "name",
      "outputs": [
        {
          "internalType": "string",
          "name": "",
          "type": "string"
        }
      ],
      "stateMutability": "view",
      "type": "function",
      "constant": true
    },
    {
      "inputs": [
        {
          "internalType": "uint256",
          "name": "tokenId",
          "type": "uint256"
        }
      ],
      "name": "ownerOf",
      "outputs": [
        {
          "internalType": "address",
          "name": "",
          "type": "address"
        }
      ],
      "stateMutability": "view",
      "type": "function",
      "constant": true
    },
    {
      "inputs": [
        {
          "internalType": "address",
          "name": "from",
          "type": "address"
        },
        {
          "internalType": "address",
          "name": "to",
          "type": "address"
        },
        {
          "internalType": "uint256",
          "name": "tokenId",
          "type": "uint256"
        }
      ],
      "name": "safeTransferFrom",
      "outputs": [],
      "stateMutability": "nonpayable",
      "type": "function"
    },
    {
      "inputs": [
        {
          "internalType": "address",
          "name": "from",
          "type": "address"
        },
        {
          "internalType": "address",
          "name": "to",
          "type": "address"
        },
        {
          "internalType": "uint256",
          "name": "tokenId",
          "type": "uint256"
        },
        {
          "internalType": "bytes",
          "name": "_data",
          "type": "bytes"
        }
      ],
      "name": "safeTransferFrom",
      "outputs": [],
      "stateMutability": "nonpayable",
      "type": "function"
    },
    {
      "inputs": [
        {
          "internalType": "address",
          "name": "operator",
          "type": "address"
        },
        {
          "internalType": "bool",
          "name": "approved",
          "type": "bool"
        }
      ],
      "name": "setApprovalForAll",
      "outputs": [],
      "stateMutability": "nonpayable",
      "type": "function"
    },
    {
      "inputs": [
        {
          "internalType": "uint256",
          "name": "",
          "type": "uint256"
        }
      ],
      "name": "starsForSale",
      "outputs": [
        {
          "internalType": "uint256",
          "name": "",
          "type": "uint256"
        }
      ],
      "stateMutability": "view",
      "type": "function",
      "constant": true
    },
    {
      "inputs": [
        {
          "internalType": "bytes4",
          "name": "interfaceId",
          "type": "bytes4"
        }
      ],
      "name": "supportsInterface",
      "outputs": [
        {
          "internalType": "bool",
          "name": "",
          "type": "bool"
        }
      ],
      "stateMutability": "view",
      "type": "function",
      "constant": true
    },
    {
      "inputs": [],
      "name": "symbol",
      "outputs": [
        {
          "internalType": "string",
          "name": "",
          "type": "string"
        }
      ],
      "stateMutability": "view",
      "type": "function",
      "constant": true
    },
    {
      "inputs": [
        {
          "internalType": "uint256",
          "name": "index",
          "type": "uint256"
        }
      ],
      "name": "tokenByIndex",
      "outputs": [
        {
          "internalType": "uint256",
          "name": "",
          "type": "uint256"
        }
      ],
      "stateMutability": "view",
      "type": "function",
      "constant": true
    },
    {
      "inputs": [
        {
          "internalType": "uint256",
          "name": "",
          "type": "uint256"
        }
      ],
      "name": "tokenIdToStarInfo",
      "outputs": [
        {
          "internalType": "string",
          "name": "name",
          "type": "string"
        }
      ],
      "stateMutability": "view",
      "type": "function",
      "constant": true
    },
    {
      "inputs": [
        {
          "internalType": "address",
          "name": "owner",
          "type": "address"
        },
        {
          "internalType": "uint256",
          "name": "index",
          "type": "uint256"
        }
      ],
      "name": "tokenOfOwnerByIndex",
      "outputs": [
        {
          "internalType": "uint256",
          "name": "",
          "type": "uint256"
        }
      ],
      "stateMutability": "view",
      "type": "function",
      "constant": true
    },
    {
      "inputs": [
        {
          "internalType": "uint256",
          "name": "tokenId",
          "type": "uint256"
        }
      ],
      "name": "tokenURI",
      "outputs": [
        {
          "internalType": "string",
          "name": "",
          "type": "string"
        }
      ],
      "stateMutability": "view",
      "type": "function",
      "constant": true
    },
    {
      "inputs": [],
      "name": "totalSupply",
      "outputs": [
        {
          "internalType": "uint256",
          "name": "",
          "type": "uint256"
        }
      ],
      "stateMutability": "view",
      "type": "function",
      "constant": true
    },
    {
      "inputs": [
        {
          "internalType": "address",
          "name": "from",
          "type": "address"
        },
        {
          "internalType": "address",
          "name": "to",
          "type": "address"
        },
        {
          "internalType": "uint256",
          "name": "tokenId",
          "type": "uint256"
        }
      ],
      "name": "transferFrom",
      "outputs": [],
      "stateMutability": "nonpayable",
      "type": "function"
    },
    {
      "inputs": [
        {
          "internalType": "string",
          "name": "_name",
          "type": "string"
        },
        {
          "internalType": "uint256",
          "name": "_tokenId",
          "type": "uint256"
        }
      ],
      "name": "createStar",
      "outputs": [],
      "stateMutability": "nonpayable",
      "type": "function"
    },
    {
      "inputs": [
        {
          "internalType": "uint256",
          "name": "_tokenId",
          "type": "uint256"
        },
        {
          "internalType": "uint256",
          "name": "_price",
          "type": "uint256"
        }
      ],
      "name": "putStarUpForSale",
      "outputs": [],
      "stateMutability": "nonpayable",
      "type": "function"
    },
    {
      "inputs": [
        {
          "internalType": "uint256",
          "name": "_tokenId",
          "type": "uint256"
        }
      ],
      "name": "buyStar",
      "outputs": [],
      "stateMutability": "payable",
      "type": "function",
      "payable": true
    },
    {
      "inputs": [
        {
          "internalType": "uint256",
          "name": "_tokenId",
          "type": "uint256"
        }
      ],
      "name": "lookUptokenIdToStarInfo",
      "outputs": [
        {
          "internalType": "string",
          "name": "",
          "type": "string"
        }
      ],
      "stateMutability": "view",
      "type": "function",
      "constant": true
    },
    {
      "inputs": [
        {
          "internalType": "uint256",
          "name": "_tokenId1",
          "type": "uint256"
        },
        {
          "internalType": "uint256",
          "name": "_tokenId2",
          "type": "uint256"
        }
      ],
      "name": "exchangeStars",
      "outputs": [],
      "stateMutability": "nonpayable",
      "type": "function"
    },
    {
      "inputs": [
        {
          "internalType": "address",
          "name": "_to1",
          "type": "address"
        },
        {
          "internalType": "uint256",
          "name": "_tokenId",
          "type": "uint256"
        }
      ],
      "name": "transferStar",
      "outputs": [],
      "stateMutability": "nonpayable",
      "type": "function"
    }
  ],
  "bytecode": "0x60806040523480156200001157600080fd5b506040518060400160405280601581526020017f6e65656c73207374617220626c6f636b636861696e00000000000000000000008152506040518060400160405280600581526020017f4e53544152000000000000000000000000000000000000000000000000000000815250620000966301ffc9a760e01b6200011860201b60201c565b8160069080519060200190620000ae92919062000221565b508060079080519060200190620000c792919062000221565b50620000e06380ac58cd60e01b6200011860201b60201c565b620000f8635b5e139f60e01b6200011860201b60201c565b6200011063780e9d6360e01b6200011860201b60201c565b5050620002d0565b63ffffffff60e01b817bffffffffffffffffffffffffffffffffffffffffffffffffffffffff19161415620001b5576040517f08c379a000000000000000000000000000000000000000000000000000000000815260040180806020018281038252601c8152602001807f4552433136353a20696e76616c696420696e746572666163652069640000000081525060200191505060405180910390fd5b6001600080837bffffffffffffffffffffffffffffffffffffffffffffffffffffffff19167bffffffffffffffffffffffffffffffffffffffffffffffffffffffff1916815260200190815260200160002060006101000a81548160ff02191690831515021790555050565b828054600181600116156101000203166002900490600052602060002090601f016020900481019282601f106200026457805160ff191683800117855562000295565b8280016001018555821562000295579182015b828111156200029457825182559160200191906001019062000277565b5b509050620002a49190620002a8565b5090565b620002cd91905b80821115620002c9576000816000905550600101620002af565b5090565b90565b61341080620002e06000396000f3fe6080604052600436106101665760003560e01c806342842e0e116100d15780639697c0a11161008a578063c87b56dd11610064578063c87b56dd14610b1e578063d7830ccb14610bd2578063e7152a5c14610c86578063e985e9c514610ce157610166565b80639697c0a1146108dd578063a22cb465146109af578063b88d4fde14610a0c57610166565b806342842e0e146106135780634f6ccce71461068e5780636352211e146106dd5780636c0360eb1461075857806370a08231146107e857806395d89b411461084d57610166565b806318160ddd1161012357806318160ddd146103d75780631967fd981461040257806323b872dd146104b65780632f1c34ef146105315780632f745c591461055f578063316a4361146105ce57610166565b806301ffc9a71461016b5780630564b130146101dd57806306fdde031461022c578063081812fc146102bc578063095ea7b31461033757806315e0afa514610392575b600080fd5b34801561017757600080fd5b506101c36004803603602081101561018e57600080fd5b8101908080357bffffffffffffffffffffffffffffffffffffffffffffffffffffffff19169060200190929190505050610d6a565b604051808215151515815260200191505060405180910390f35b3480156101e957600080fd5b506102166004803603602081101561020057600080fd5b8101908080359060200190929190505050610dd1565b6040518082815260200191505060405180910390f35b34801561023857600080fd5b50610241610de9565b6040518080602001828103825283818151815260200191508051906020019080838360005b83811015610281578082015181840152602081019050610266565b50505050905090810190601f1680156102ae5780820380516001836020036101000a031916815260200191505b509250505060405180910390f35b3480156102c857600080fd5b506102f5600480360360208110156102df57600080fd5b8101908080359060200190929190505050610e8b565b604051808273ffffffffffffffffffffffffffffffffffffffff1673ffffffffffffffffffffffffffffffffffffffff16815260200191505060405180910390f35b34801561034357600080fd5b506103906004803603604081101561035a57600080fd5b81019080803573ffffffffffffffffffffffffffffffffffffffff16906020019092919080359060200190929190505050610f26565b005b34801561039e57600080fd5b506103d5600480360360408110156103b557600080fd5b81019080803590602001909291908035906020019092919050505061106a565b005b3480156103e357600080fd5b506103ec61116a565b6040518082815260200191505060405180910390f35b34801561040e57600080fd5b5061043b6004803603602081101561042557600080fd5b810190808035906020019092919050505061117b565b6040518080602001828103825283818151815260200191508051906020019080838360005b8381101561047b578082015181840152602081019050610460565b50505050905090810190601f1680156104a85780820380516001836020036101000a031916815260200191505b509250505060405180910390f35b3480156104c257600080fd5b5061052f600480360360608110156104d957600080fd5b81019080803573ffffffffffffffffffffffffffffffffffffffff169060200190929190803573ffffffffffffffffffffffffffffffffffffffff16906020019092919080359060200190929190505050611231565b005b61055d6004803603602081101561054757600080fd5b81019080803590602001909291905050506112a7565b005b34801561056b57600080fd5b506105b86004803603604081101561058257600080fd5b81019080803573ffffffffffffffffffffffffffffffffffffffff16906020019092919080359060200190929190505050611481565b6040518082815260200191505060405180910390f35b3480156105da57600080fd5b50610611600480360360408110156105f157600080fd5b8101908080359060200190929190803590602001909291905050506114dc565b005b34801561061f57600080fd5b5061068c6004803603606081101561063657600080fd5b81019080803573ffffffffffffffffffffffffffffffffffffffff169060200190929190803573ffffffffffffffffffffffffffffffffffffffff16906020019092919080359060200190929190505050611584565b005b34801561069a57600080fd5b506106c7600480360360208110156106b157600080fd5b81019080803590602001909291905050506115a4565b6040518082815260200191505060405180910390f35b3480156106e957600080fd5b506107166004803603602081101561070057600080fd5b81019080803590602001909291905050506115c7565b604051808273ffffffffffffffffffffffffffffffffffffffff1673ffffffffffffffffffffffffffffffffffffffff16815260200191505060405180910390f35b34801561076457600080fd5b5061076d6115fe565b6040518080602001828103825283818151815260200191508051906020019080838360005b838110156107ad578082015181840152602081019050610792565b50505050905090810190601f1680156107da5780820380516001836020036101000a031916815260200191505b509250505060405180910390f35b3480156107f457600080fd5b506108376004803603602081101561080b57600080fd5b81019080803573ffffffffffffffffffffffffffffffffffffffff1690602001909291905050506116a0565b6040518082815260200191505060405180910390f35b34801561085957600080fd5b50610862611775565b6040518080602001828103825283818151815260200191508051906020019080838360005b838110156108a2578082015181840152602081019050610887565b50505050905090810190601f1680156108cf5780820380516001836020036101000a031916815260200191505b509250505060405180910390f35b3480156108e957600080fd5b506109ad6004803603604081101561090057600080fd5b810190808035906020019064010000000081111561091d57600080fd5b82018360208201111561092f57600080fd5b8035906020019184600183028401116401000000008311171561095157600080fd5b91908080601f016020809104026020016040519081016040528093929190818152602001838380828437600081840152601f19601f82011690508083019250505050505050919291929080359060200190929190505050611817565b005b3480156109bb57600080fd5b50610a0a600480360360408110156109d257600080fd5b81019080803573ffffffffffffffffffffffffffffffffffffffff169060200190929190803515159060200190929190505050611873565b005b348015610a1857600080fd5b50610b1c60048036036080811015610a2f57600080fd5b81019080803573ffffffffffffffffffffffffffffffffffffffff169060200190929190803573ffffffffffffffffffffffffffffffffffffffff1690602001909291908035906020019092919080359060200190640100000000811115610a9657600080fd5b820183602082011115610aa857600080fd5b80359060200191846001830284011164010000000083111715610aca57600080fd5b91908080601f016020809104026020016040519081016040528093929190818152602001838380828437600081840152601f19601f820116905080830192505050505050509192919290505050611a2b565b005b348015610b2a57600080fd5b50610b5760048036036020811015610b4157600080fd5b8101908080359060200190929190505050611aa3565b6040518080602001828103825283818151815260200191508051906020019080838360005b83811015610b97578082015181840152602081019050610b7c565b50505050905090810190601f168015610bc45780820380516001836020036101000a031916815260200191505b509250505060405180910390f35b348015610bde57600080fd5b50610c0b60048036036020811015610bf557600080fd5b8101908080359060200190929190505050611d8c565b6040518080602001828103825283818151815260200191508051906020019080838360005b83811015610c4b578082015181840152602081019050610c30565b50505050905090810190601f168015610c785780820380516001836020036101000a031916815260200191505b509250505060405180910390f35b348015610c9257600080fd5b50610cdf60048036036040811015610ca957600080fd5b81019080803573ffffffffffffffffffffffffffffffffffffffff16906020019092919080359060200190929190505050611e65565b005b348015610ced57600080fd5b50610d5060048036036040811015610d0457600080fd5b81019080803573ffffffffffffffffffffffffffffffffffffffff169060200190929190803573ffffffffffffffffffffffffffffffffffffffff169060200190929190505050611f00565b604051808215151515815260200191505060405180910390f35b6000806000837bffffffffffffffffffffffffffffffffffffffffffffffffffffffff19167bffffffffffffffffffffffffffffffffffffffffffffffffffffffff1916815260200190815260200160002060009054906101000a900460ff169050919050565b600b6020528060005260406000206000915090505481565b606060068054600181600116156101000203166002900480601f016020809104026020016040519081016040528092919081815260200182805460018160011615610100020316600290048015610e815780601f10610e5657610100808354040283529160200191610e81565b820191906000526020600020905b815481529060010190602001808311610e6457829003601f168201915b5050505050905090565b6000610e9682611f94565b610eeb576040517f08c379a000000000000000000000000000000000000000000000000000000000815260040180806020018281038252602c815260200180613305602c913960400191505060405180910390fd5b6004600083815260200190815260200160002060009054906101000a900473ffffffffffffffffffffffffffffffffffffffff169050919050565b6000610f31826115c7565b90508073ffffffffffffffffffffffffffffffffffffffff168373ffffffffffffffffffffffffffffffffffffffff161415610fb8576040517f08c379a00000000000000000000000000000000000000000000000000000000081526004018080602001828103825260218152602001806133896021913960400191505060405180910390fd5b8073ffffffffffffffffffffffffffffffffffffffff16610fd7611fb1565b73ffffffffffffffffffffffffffffffffffffffff161480611006575061100581611000611fb1565b611f00565b5b61105b576040517f08c379a000000000000000000000000000000000000000000000000000000000815260040180806020018281038252603881526020018061322f6038913960400191505060405180910390fd5b6110658383611fb9565b505050565b3373ffffffffffffffffffffffffffffffffffffffff1661108a836115c7565b73ffffffffffffffffffffffffffffffffffffffff1614806110df57503373ffffffffffffffffffffffffffffffffffffffff166110c7826115c7565b73ffffffffffffffffffffffffffffffffffffffff16145b611134576040517f08c379a00000000000000000000000000000000000000000000000000000000081526004018080602001828103825260298152602001806132ba6029913960400191505060405180910390fd5b600061113f836115c7565b9050600061114c836115c7565b9050611159828286612072565b611164818385612072565b50505050565b600061117660026122b5565b905090565b600a602052806000526040600020600091509050806000018054600181600116156101000203166002900480601f0160208091040260200160405190810160405280929190818152602001828054600181600116156101000203166002900480156112275780601f106111fc57610100808354040283529160200191611227565b820191906000526020600020905b81548152906001019060200180831161120a57829003601f168201915b5050505050905081565b61124261123c611fb1565b826122ca565b611297576040517f08c379a00000000000000000000000000000000000000000000000000000000081526004018080602001828103825260318152602001806133aa6031913960400191505060405180910390fd5b6112a2838383612072565b505050565b6000600b60008381526020019081526020016000205411611330576040517f08c379a000000000000000000000000000000000000000000000000000000000815260040180806020018281038252601e8152602001807f54686520537461722073686f756c6420626520757020666f722073616c65000081525060200191505060405180910390fd5b6000600b60008381526020019081526020016000205490506000611353836115c7565b90508134116113ca576040517f08c379a000000000000000000000000000000000000000000000000000000000815260040180806020018281038252601d8152602001807f596f75206e65656420746f206861766520656e6f75676820457468657200000081525060200191505060405180910390fd5b6113d5813385612072565b60006113e0826123be565b90508073ffffffffffffffffffffffffffffffffffffffff166108fc849081150290604051600060405180830381858888f19350505050158015611428573d6000803e3d6000fd5b508234111561147b573373ffffffffffffffffffffffffffffffffffffffff166108fc8434039081150290604051600060405180830381858888f19350505050158015611479573d6000803e3d6000fd5b505b50505050565b60006114d482600160008673ffffffffffffffffffffffffffffffffffffffff1673ffffffffffffffffffffffffffffffffffffffff1681526020019081526020016000206123c890919063ffffffff16565b905092915050565b3373ffffffffffffffffffffffffffffffffffffffff166114fc836115c7565b73ffffffffffffffffffffffffffffffffffffffff1614611568576040517f08c379a00000000000000000000000000000000000000000000000000000000081526004018080602001828103825260278152602001806131386027913960400191505060405180910390fd5b80600b6000848152602001908152602001600020819055505050565b61159f83838360405180602001604052806000815250611a2b565b505050565b6000806115bb8360026123e290919063ffffffff16565b50905080915050919050565b60006115f7826040518060600160405280602981526020016132916029913960026124119092919063ffffffff16565b9050919050565b606060098054600181600116156101000203166002900480601f0160208091040260200160405190810160405280929190818152602001828054600181600116156101000203166002900480156116965780601f1061166b57610100808354040283529160200191611696565b820191906000526020600020905b81548152906001019060200180831161167957829003601f168201915b5050505050905090565b60008073ffffffffffffffffffffffffffffffffffffffff168273ffffffffffffffffffffffffffffffffffffffff161415611727576040517f08c379a000000000000000000000000000000000000000000000000000000000815260040180806020018281038252602a815260200180613267602a913960400191505060405180910390fd5b61176e600160008473ffffffffffffffffffffffffffffffffffffffff1673ffffffffffffffffffffffffffffffffffffffff168152602001908152602001600020612430565b9050919050565b606060078054600181600116156101000203166002900480601f01602080910402602001604051908101604052809291908181526020018280546001816001161561010002031660029004801561180d5780601f106117e25761010080835404028352916020019161180d565b820191906000526020600020905b8154815290600101906020018083116117f057829003601f168201915b5050505050905090565b61181f61307f565b604051806020016040528084815250905080600a60008481526020019081526020016000206000820151816000019080519060200190611860929190613092565b5090505061186e3383612445565b505050565b61187b611fb1565b73ffffffffffffffffffffffffffffffffffffffff168273ffffffffffffffffffffffffffffffffffffffff16141561191c576040517f08c379a00000000000000000000000000000000000000000000000000000000081526004018080602001828103825260198152602001807f4552433732313a20617070726f766520746f2063616c6c65720000000000000081525060200191505060405180910390fd5b8060056000611929611fb1565b73ffffffffffffffffffffffffffffffffffffffff1673ffffffffffffffffffffffffffffffffffffffff16815260200190815260200160002060008473ffffffffffffffffffffffffffffffffffffffff1673ffffffffffffffffffffffffffffffffffffffff16815260200190815260200160002060006101000a81548160ff0219169083151502179055508173ffffffffffffffffffffffffffffffffffffffff166119d6611fb1565b73ffffffffffffffffffffffffffffffffffffffff167f17307eab39ab6107e8899845ad3d59bd9653f200f220920489ca2b5937696c3183604051808215151515815260200191505060405180910390a35050565b611a3c611a36611fb1565b836122ca565b611a91576040517f08c379a00000000000000000000000000000000000000000000000000000000081526004018080602001828103825260318152602001806133aa6031913960400191505060405180910390fd5b611a9d84848484612639565b50505050565b6060611aae82611f94565b611b03576040517f08c379a000000000000000000000000000000000000000000000000000000000815260040180806020018281038252602f81526020018061335a602f913960400191505060405180910390fd5b6060600860008481526020019081526020016000208054600181600116156101000203166002900480601f016020809104026020016040519081016040528092919081815260200182805460018160011615610100020316600290048015611bac5780601f10611b8157610100808354040283529160200191611bac565b820191906000526020600020905b815481529060010190602001808311611b8f57829003601f168201915b50505050509050600060098054600181600116156101000203166002900490501415611bdb5780915050611d87565b600081511115611cb4576009816040516020018083805460018160011615610100020316600290048015611c465780601f10611c24576101008083540402835291820191611c46565b820191906000526020600020905b815481529060010190602001808311611c32575b505082805190602001908083835b60208310611c775780518252602082019150602081019050602083039250611c54565b6001836020036101000a03801982511681845116808217855250505050505090500192505050604051602081830303815290604052915050611d87565b6009611cbf846126ab565b6040516020018083805460018160011615610100020316600290048015611d1d5780601f10611cfb576101008083540402835291820191611d1d565b820191906000526020600020905b815481529060010190602001808311611d09575b505082805190602001908083835b60208310611d4e5780518252602082019150602081019050602083039250611d2b565b6001836020036101000a038019825116818451168082178552505050505050905001925050506040516020818303038152906040529150505b919050565b6060611d9661307f565b600a6000848152602001908152602001600020604051806020016040529081600082018054600181600116156101000203166002900480601f016020809104026020016040519081016040528092919081815260200182805460018160011615610100020316600290048015611e4d5780601f10611e2257610100808354040283529160200191611e4d565b820191906000526020600020905b815481529060010190602001808311611e3057829003601f168201915b50505050508152505090508060000151915050919050565b3373ffffffffffffffffffffffffffffffffffffffff16611e85826115c7565b73ffffffffffffffffffffffffffffffffffffffff1614611ef1576040517f08c379a000000000000000000000000000000000000000000000000000000000815260040180806020018281038252602c8152602001806131d7602c913960400191505060405180910390fd5b611efc338383612072565b5050565b6000600560008473ffffffffffffffffffffffffffffffffffffffff1673ffffffffffffffffffffffffffffffffffffffff16815260200190815260200160002060008373ffffffffffffffffffffffffffffffffffffffff1673ffffffffffffffffffffffffffffffffffffffff16815260200190815260200160002060009054906101000a900460ff16905092915050565b6000611faa8260026127db90919063ffffffff16565b9050919050565b600033905090565b816004600083815260200190815260200160002060006101000a81548173ffffffffffffffffffffffffffffffffffffffff021916908373ffffffffffffffffffffffffffffffffffffffff160217905550808273ffffffffffffffffffffffffffffffffffffffff1661202c836115c7565b73ffffffffffffffffffffffffffffffffffffffff167f8c5be1e5ebec7d5bd14f71427d1e84f3dd0314c0f7b2291e5b200ac8c7c3b92560405160405180910390a45050565b8273ffffffffffffffffffffffffffffffffffffffff16612092826115c7565b73ffffffffffffffffffffffffffffffffffffffff16146120fe576040517f08c379a00000000000000000000000000000000000000000000000000000000081526004018080602001828103825260298152602001806133316029913960400191505060405180910390fd5b600073ffffffffffffffffffffffffffffffffffffffff168273ffffffffffffffffffffffffffffffffffffffff161415612184576040517f08c379a00000000000000000000000000000000000000000000000000000000081526004018080602001828103825260248152602001806131b36024913960400191505060405180910390fd5b61218f8383836127f5565b61219a600082611fb9565b6121eb81600160008673ffffffffffffffffffffffffffffffffffffffff1673ffffffffffffffffffffffffffffffffffffffff1681526020019081526020016000206127fa90919063ffffffff16565b5061223d81600160008573ffffffffffffffffffffffffffffffffffffffff1673ffffffffffffffffffffffffffffffffffffffff16815260200190815260200160002061281490919063ffffffff16565b506122548183600261282e9092919063ffffffff16565b50808273ffffffffffffffffffffffffffffffffffffffff168473ffffffffffffffffffffffffffffffffffffffff167fddf252ad1be2c89b69c2b068fc378daa952ba7f163c4a11628f55a4df523b3ef60405160405180910390a4505050565b60006122c382600001612863565b9050919050565b60006122d582611f94565b61232a576040517f08c379a000000000000000000000000000000000000000000000000000000000815260040180806020018281038252602c815260200180613203602c913960400191505060405180910390fd5b6000612335836115c7565b90508073ffffffffffffffffffffffffffffffffffffffff168473ffffffffffffffffffffffffffffffffffffffff1614806123a457508373ffffffffffffffffffffffffffffffffffffffff1661238c84610e8b565b73ffffffffffffffffffffffffffffffffffffffff16145b806123b557506123b48185611f00565b5b91505092915050565b6000819050919050565b60006123d78360000183612874565b60001c905092915050565b6000806000806123f586600001866128f7565b915091508160001c8160001c8090509350935050509250929050565b6000612424846000018460001b84612990565b60001c90509392505050565b600061243e82600001612a86565b9050919050565b600073ffffffffffffffffffffffffffffffffffffffff168273ffffffffffffffffffffffffffffffffffffffff1614156124e8576040517f08c379a00000000000000000000000000000000000000000000000000000000081526004018080602001828103825260208152602001807f4552433732313a206d696e7420746f20746865207a65726f206164647265737381525060200191505060405180910390fd5b6124f181611f94565b15612564576040517f08c379a000000000000000000000000000000000000000000000000000000000815260040180806020018281038252601c8152602001807f4552433732313a20746f6b656e20616c7265616479206d696e7465640000000081525060200191505060405180910390fd5b612570600083836127f5565b6125c181600160008573ffffffffffffffffffffffffffffffffffffffff1673ffffffffffffffffffffffffffffffffffffffff16815260200190815260200160002061281490919063ffffffff16565b506125d88183600261282e9092919063ffffffff16565b50808273ffffffffffffffffffffffffffffffffffffffff16600073ffffffffffffffffffffffffffffffffffffffff167fddf252ad1be2c89b69c2b068fc378daa952ba7f163c4a11628f55a4df523b3ef60405160405180910390a45050565b612644848484612072565b61265084848484612a97565b6126a5576040517f08c379a00000000000000000000000000000000000000000000000000000000081526004018080602001828103825260328152602001806131816032913960400191505060405180910390fd5b50505050565b606060008214156126f3576040518060400160405280600181526020017f300000000000000000000000000000000000000000000000000000000000000081525090506127d6565b600082905060005b6000821461271d578080600101915050600a828161271557fe5b0491506126fb565b6060816040519080825280601f01601f1916602001820160405280156127525781602001600182028038833980820191505090505b50905060006001830390508593505b600084146127ce57600a848161277357fe5b0660300160f81b8282806001900393508151811061278d57fe5b60200101907effffffffffffffffffffffffffffffffffffffffffffffffffffffffffffff1916908160001a905350600a84816127c657fe5b049350612761565b819450505050505b919050565b60006127ed836000018360001b612dba565b905092915050565b505050565b600061280c836000018360001b612ddd565b905092915050565b6000612826836000018360001b612ec5565b905092915050565b600061285a846000018460001b8473ffffffffffffffffffffffffffffffffffffffff1660001b612f35565b90509392505050565b600081600001805490509050919050565b6000818360000180549050116128d5576040517f08c379a000000000000000000000000000000000000000000000000000000000815260040180806020018281038252602281526020018061315f6022913960400191505060405180910390fd5b8260000182815481106128e457fe5b9060005260206000200154905092915050565b60008082846000018054905011612959576040517f08c379a00000000000000000000000000000000000000000000000000000000081526004018080602001828103825260228152602001806132e36022913960400191505060405180910390fd5b600084600001848154811061296a57fe5b906000526020600020906002020190508060000154816001015492509250509250929050565b60008084600101600085815260200190815260200160002054905060008114158390612a57576040517f08c379a00000000000000000000000000000000000000000000000000000000081526004018080602001828103825283818151815260200191508051906020019080838360005b83811015612a1c578082015181840152602081019050612a01565b50505050905090810190601f168015612a495780820380516001836020036101000a031916815260200191505b509250505060405180910390fd5b50846000016001820381548110612a6a57fe5b9060005260206000209060020201600101549150509392505050565b600081600001805490509050919050565b6000612ab88473ffffffffffffffffffffffffffffffffffffffff16613011565b612ac55760019050612db2565b600060608573ffffffffffffffffffffffffffffffffffffffff1663150b7a0260e01b612af0611fb1565b898888604051602401808573ffffffffffffffffffffffffffffffffffffffff1673ffffffffffffffffffffffffffffffffffffffff1681526020018473ffffffffffffffffffffffffffffffffffffffff1673ffffffffffffffffffffffffffffffffffffffff16815260200183815260200180602001828103825283818151815260200191508051906020019080838360005b83811015612ba0578082015181840152602081019050612b85565b50505050905090810190601f168015612bcd5780820380516001836020036101000a031916815260200191505b5095505050505050604051602081830303815290604052907bffffffffffffffffffffffffffffffffffffffffffffffffffffffff19166020820180517bffffffffffffffffffffffffffffffffffffffffffffffffffffffff83818316178352505050506040518082805190602001908083835b60208310612c655780518252602082019150602081019050602083039250612c42565b6001836020036101000a0380198251168184511680821785525050505050509050019150506000604051808303816000865af19150503d8060008114612cc7576040519150601f19603f3d011682016040523d82523d6000602084013e612ccc565b606091505b509150915081612d3a57600081511115612ce95780518082602001fd5b6040517f08c379a00000000000000000000000000000000000000000000000000000000081526004018080602001828103825260328152602001806131816032913960400191505060405180910390fd5b6000818060200190516020811015612d5157600080fd5b8101908080519060200190929190505050905063150b7a0260e01b7bffffffffffffffffffffffffffffffffffffffffffffffffffffffff1916817bffffffffffffffffffffffffffffffffffffffffffffffffffffffff19161493505050505b949350505050565b600080836001016000848152602001908152602001600020541415905092915050565b60008083600101600084815260200190815260200160002054905060008114612eb95760006001820390506000600186600001805490500390506000866000018281548110612e2857fe5b9060005260206000200154905080876000018481548110612e4557fe5b9060005260206000200181905550600183018760010160008381526020019081526020016000208190555086600001805480612e7d57fe5b60019003818190600052602060002001600090559055866001016000878152602001908152602001600020600090556001945050505050612ebf565b60009150505b92915050565b6000612ed1838361305c565b612f2a578260000182908060018154018082558091505060019003906000526020600020016000909190919091505582600001805490508360010160008481526020019081526020016000208190555060019050612f2f565b600090505b92915050565b6000808460010160008581526020019081526020016000205490506000811415612fdc5784600001604051806040016040528086815260200185815250908060018154018082558091505060019003906000526020600020906002020160009091909190915060008201518160000155602082015181600101555050846000018054905085600101600086815260200190815260200160002081905550600191505061300a565b82856000016001830381548110612fef57fe5b90600052602060002090600202016001018190555060009150505b9392505050565b60008060007fc5d2460186f7233c927e7db2dcc703c0e500b653ca82273b7bfad8045d85a47060001b9050833f915080821415801561305357506000801b8214155b92505050919050565b600080836001016000848152602001908152602001600020541415905092915050565b6040518060200160405280606081525090565b828054600181600116156101000203166002900490600052602060002090601f016020900481019282601f106130d357805160ff1916838001178555613101565b82800160010185558215613101579182015b828111156131005782518255916020019190600101906130e5565b5b50905061310e9190613112565b5090565b61313491905b80821115613130576000816000905550600101613118565b5090565b9056fe596f752063616e27742073616c6520746865205374617220796f7520646f6e2774206f776e6564456e756d657261626c655365743a20696e646578206f7574206f6620626f756e64734552433732313a207472616e7366657220746f206e6f6e20455243373231526563656976657220696d706c656d656e7465724552433732313a207472616e7366657220746f20746865207a65726f2061646472657373596f752063616e2774207472616e7366657220746865205374617220796f7520646f6e2774206f776e203a294552433732313a206f70657261746f7220717565727920666f72206e6f6e6578697374656e7420746f6b656e4552433732313a20617070726f76652063616c6c6572206973206e6f74206f776e6572206e6f7220617070726f76656420666f7220616c6c4552433732313a2062616c616e636520717565727920666f7220746865207a65726f20616464726573734552433732313a206f776e657220717565727920666f72206e6f6e6578697374656e7420746f6b656e596f752063616e27742065786368616e676520746865205374617220796f7520646f6e2774206f776e456e756d657261626c654d61703a20696e646578206f7574206f6620626f756e64734552433732313a20617070726f76656420717565727920666f72206e6f6e6578697374656e7420746f6b656e4552433732313a207472616e73666572206f6620746f6b656e2074686174206973206e6f74206f776e4552433732314d657461646174613a2055524920717565727920666f72206e6f6e6578697374656e7420746f6b656e4552433732313a20617070726f76616c20746f2063757272656e74206f776e65724552433732313a207472616e736665722063616c6c6572206973206e6f74206f776e6572206e6f7220617070726f766564a26469706673582212205ea9f00e18c57d1d3e58f468041a31126b88f10c32158392ee471a1801e7871c64736f6c63430006020033",
  "source": "pragma solidity >=0.5.1;\n\n//Importing openzeppelin-solidity ERC-721 implemented Standard\nimport \"../node_modules/openzeppelin-solidity/contracts/token/ERC721/ERC721.sol\";\n\n// StarNotary Contract declaration inheritance the ERC721 openzeppelin implementation\ncontract StarNotary is ERC721{\n\n    // Star data\n    struct Star {\n        string name;\n    }\n\n    // Implement Task 1 Add a name and symbol properties\n    // name: Is a short name to your token\n    // symbol: Is a short string like 'USD' -> 'American Dollar'\n    //https://docs.openzeppelin.com/contracts/2.x/erc721 Used this as a guide to create token\n    constructor() ERC721(\"neels star blockchain\", \"NSTAR\") public {\n    }\n\n    // mapping the Star with the Owner Address\n    mapping(uint256 => Star) public tokenIdToStarInfo;\n    // mapping the TokenId and price\n    mapping(uint256 => uint256) public starsForSale;\n\n    \n    // Create Star using the Struct\n    function createStar(string memory _name, uint256 _tokenId) public { // Passing the name and tokenId as a parameters\n        Star memory newStar = Star(_name); // Star is an struct so we are creating a new Star\n        tokenIdToStarInfo[_tokenId] = newStar; // Creating in memory the Star -> tokenId mapping\n        _mint(msg.sender, _tokenId); // _mint assign the the star with _tokenId to the sender address (ownership)\n    }\n\n    // Putting an Star for sale (Adding the star tokenid into the mapping starsForSale, first verify that the sender is the owner)\n    function putStarUpForSale(uint256 _tokenId, uint256 _price) public {\n        require(ownerOf(_tokenId) == msg.sender, \"You can't sale the Star you don't owned\");\n        starsForSale[_tokenId] = _price;\n    }\n\n\n    // Function that allows you to convert an address into a payable address\n    function _make_payable(address x) internal pure returns (address payable) {\n        return address(uint160(x));\n    }\n\n    function buyStar(uint256 _tokenId) public  payable {\n        require(starsForSale[_tokenId] > 0, \"The Star should be up for sale\");\n        uint256 starCost = starsForSale[_tokenId];\n        address ownerAddress = ownerOf(_tokenId);\n        require(msg.value > starCost, \"You need to have enough Ether\");\n        _transfer(ownerAddress, msg.sender, _tokenId);\n        address payable ownerAddressPayable = _make_payable(ownerAddress);\n        ownerAddressPayable.transfer(starCost);\n        if(msg.value > starCost) {\n            msg.sender.transfer(msg.value - starCost);\n        }\n    }\n\n    // Implement Task 1 lookUptokenIdToStarInfo\n    function lookUptokenIdToStarInfo (uint _tokenId) public view returns (string memory) {\n        //1. You should return the Star saved in tokenIdToStarInfo mapping\n        Star memory starName = tokenIdToStarInfo[_tokenId];\n        return starName.name;\n    }\n\n    // Implement Task 1 Exchange Stars function\n    function exchangeStars(uint256 _tokenId1, uint256 _tokenId2) public {\n        //1. Passing to star tokenId you will need to check if the owner of _tokenId1 or _tokenId2 is the sender\n        require(ownerOf(_tokenId1) == msg.sender || ownerOf(_tokenId2) == msg.sender, \"You can't exchange the Star you don't own\");\n        //2. You don't have to check for the price of the token (star)\n        //3. Get the owner of the two tokens (ownerOf(_tokenId1), ownerOf(_tokenId1)\n        //4. Use _transferFrom function to exchange the tokens.\n        address ownerAddress1 = ownerOf(_tokenId1);\n        address ownerAddress2 = ownerOf(_tokenId2);\n        _transfer(ownerAddress1, ownerAddress2, _tokenId1);\n        _transfer(ownerAddress2, ownerAddress1, _tokenId2);\n        return;\n    }\n\n    // Implement Task 1 Transfer Stars\n    function transferStar(address _to1, uint256 _tokenId) public {\n        //1. Check if the sender is the ownerOf(_tokenId)\n        //2. Use the transferFrom(from, to, tokenId); function to transfer the Star\n        require(ownerOf(_tokenId) == msg.sender, \"You can't transfer the Star you don't own :)\");\n        _transfer(msg.sender, _to1, _tokenId);\n        return;\n    }\n\n}",
  "sourcePath": "/Users/indraneelray/Documents/Blockchain-Nanodegree/CryptoStarDapp/contracts/StarNotary.sol",
  "compiler": {
    "name": "solc",
    "version": "0.6.2+commit.bacdbe57.Emscripten.clang"
  },
  "schemaVersion": "3.1.0",
  "updatedAt": "2020-04-26T09:23:08.696Z",
  "networkType": "ethereum",
  "devdoc": {
    "methods": {
      "approve(address,uint256)": {
        "details": "Approves another address to transfer the given token ID The zero address indicates there is no approved address. There can only be one approved address per token at a given time. Can only be called by the token owner or an approved operator.",
        "params": {
          "to": "address to be approved for the given token ID",
          "tokenId": "uint256 ID of the token to be approved"
        }
      },
      "balanceOf(address)": {
        "details": "Gets the balance of the specified address.",
        "params": {
          "owner": "address to query the balance of"
        },
        "returns": {
          "_0": "uint256 representing the amount owned by the passed address"
        }
      },
      "baseURI()": {
        "details": "Returns the base URI set via {_setBaseURI}. This will be automatically added as a prefix in {tokenURI} to each token's URI, or to the token ID if no specific URI is set for that token ID."
      },
      "getApproved(uint256)": {
        "details": "Gets the approved address for a token ID, or zero if no address set Reverts if the token ID does not exist.",
        "params": {
          "tokenId": "uint256 ID of the token to query the approval of"
        },
        "returns": {
          "_0": "address currently approved for the given token ID"
        }
      },
      "isApprovedForAll(address,address)": {
        "details": "Tells whether an operator is approved by a given owner.",
        "params": {
          "operator": "operator address which you want to query the approval of",
          "owner": "owner address which you want to query the approval of"
        },
        "returns": {
          "_0": "bool whether the given operator is approved by the given owner"
        }
      },
      "name()": {
        "details": "Gets the token name.",
        "returns": {
          "_0": "string representing the token name"
        }
      },
      "ownerOf(uint256)": {
        "details": "Gets the owner of the specified token ID.",
        "params": {
          "tokenId": "uint256 ID of the token to query the owner of"
        },
        "returns": {
          "_0": "address currently marked as the owner of the given token ID"
        }
      },
      "safeTransferFrom(address,address,uint256)": {
        "details": "Safely transfers the ownership of a given token ID to another address If the target address is a contract, it must implement {IERC721Receiver-onERC721Received}, which is called upon a safe transfer, and return the magic value `bytes4(keccak256(\"onERC721Received(address,address,uint256,bytes)\"))`; otherwise, the transfer is reverted. Requires the msg.sender to be the owner, approved, or operator",
        "params": {
          "from": "current owner of the token",
          "to": "address to receive the ownership of the given token ID",
          "tokenId": "uint256 ID of the token to be transferred"
        }
      },
      "safeTransferFrom(address,address,uint256,bytes)": {
        "details": "Safely transfers the ownership of a given token ID to another address If the target address is a contract, it must implement {IERC721Receiver-onERC721Received}, which is called upon a safe transfer, and return the magic value `bytes4(keccak256(\"onERC721Received(address,address,uint256,bytes)\"))`; otherwise, the transfer is reverted. Requires the _msgSender() to be the owner, approved, or operator",
        "params": {
          "_data": "bytes data to send along with a safe transfer check",
          "from": "current owner of the token",
          "to": "address to receive the ownership of the given token ID",
          "tokenId": "uint256 ID of the token to be transferred"
        }
      },
      "setApprovalForAll(address,bool)": {
        "details": "Sets or unsets the approval of a given operator An operator is allowed to transfer all tokens of the sender on their behalf.",
        "params": {
          "approved": "representing the status of the approval to be set",
          "operator": "operator address to set the approval"
        }
      },
      "supportsInterface(bytes4)": {
        "details": "See {IERC165-supportsInterface}.     * Time complexity O(1), guaranteed to always use less than 30 000 gas."
      },
      "symbol()": {
        "details": "Gets the token symbol.",
        "returns": {
          "_0": "string representing the token symbol"
        }
      },
      "tokenByIndex(uint256)": {
        "details": "Gets the token ID at a given index of all the tokens in this contract Reverts if the index is greater or equal to the total number of tokens.",
        "params": {
          "index": "uint256 representing the index to be accessed of the tokens list"
        },
        "returns": {
          "_0": "uint256 token ID at the given index of the tokens list"
        }
      },
      "tokenOfOwnerByIndex(address,uint256)": {
        "details": "Gets the token ID at a given index of the tokens list of the requested owner.",
        "params": {
          "index": "uint256 representing the index to be accessed of the requested tokens list",
          "owner": "address owning the tokens list to be accessed"
        },
        "returns": {
          "_0": "uint256 token ID at the given index of the tokens list owned by the requested address"
        }
      },
      "tokenURI(uint256)": {
        "details": "Returns the URI for a given token ID. May return an empty string.     * If a base URI is set (via {_setBaseURI}), it is added as a prefix to the token's own URI (via {_setTokenURI}).     * If there is a base URI but no token URI, the token's ID will be used as its URI when appending it to the base URI. This pattern for autogenerated token URIs can lead to large gas savings.     * .Examples |=== |`_setBaseURI()` |`_setTokenURI()` |`tokenURI()` | \"\" | \"\" | \"\" | \"\" | \"token.uri/123\" | \"token.uri/123\" | \"token.uri/\" | \"123\" | \"token.uri/123\" | \"token.uri/\" | \"\" | \"token.uri/<tokenId>\" |===     * Requirements:     * - `tokenId` must exist."
      },
      "totalSupply()": {
        "details": "Gets the total amount of tokens stored by the contract.",
        "returns": {
          "_0": "uint256 representing the total amount of tokens"
        }
      },
      "transferFrom(address,address,uint256)": {
        "details": "Transfers the ownership of a given token ID to another address. Usage of this method is discouraged, use {safeTransferFrom} whenever possible. Requires the msg.sender to be the owner, approved, or operator.",
        "params": {
          "from": "current owner of the token",
          "to": "address to receive the ownership of the given token ID",
          "tokenId": "uint256 ID of the token to be transferred"
        }
      }
    }
  },
  "userdoc": {
    "methods": {}
  }
}